{
  "contractName": "VotingSystem",
  "abi": [
    {
      "inputs": [],
      "stateMutability": "nonpayable",
      "type": "constructor"
    },
    {
      "anonymous": false,
      "inputs": [
        {
          "indexed": true,
          "internalType": "uint256",
          "name": "_candidateId",
          "type": "uint256"
        }
      ],
      "name": "votedEvent",
      "type": "event"
    },
    {
      "inputs": [],
      "name": "admin",
      "outputs": [
        {
          "internalType": "address",
          "name": "",
          "type": "address"
        }
      ],
      "stateMutability": "view",
      "type": "function"
    },
    {
      "inputs": [
        {
          "internalType": "uint256",
          "name": "",
          "type": "uint256"
        }
      ],
      "name": "candidates",
      "outputs": [
        {
          "internalType": "uint256",
          "name": "id",
          "type": "uint256"
        },
        {
          "internalType": "string",
          "name": "name",
          "type": "string"
        },
        {
          "internalType": "string",
          "name": "party",
          "type": "string"
        },
        {
          "internalType": "uint256",
          "name": "voteCount",
          "type": "uint256"
        }
      ],
      "stateMutability": "view",
      "type": "function"
    },
    {
      "inputs": [],
      "name": "candidatesCount",
      "outputs": [
        {
          "internalType": "uint256",
          "name": "",
          "type": "uint256"
        }
      ],
      "stateMutability": "view",
      "type": "function"
    },
    {
      "inputs": [],
      "name": "electionEnded",
      "outputs": [
        {
          "internalType": "bool",
          "name": "",
          "type": "bool"
        }
      ],
      "stateMutability": "view",
      "type": "function"
    },
    {
      "inputs": [],
      "name": "electionStarted",
      "outputs": [
        {
          "internalType": "bool",
          "name": "",
          "type": "bool"
        }
      ],
      "stateMutability": "view",
      "type": "function"
    },
    {
      "inputs": [
        {
          "internalType": "address",
          "name": "",
          "type": "address"
        }
      ],
      "name": "registeredVoters",
      "outputs": [
        {
          "internalType": "bool",
          "name": "",
          "type": "bool"
        }
      ],
      "stateMutability": "view",
      "type": "function"
    },
    {
      "inputs": [
        {
          "internalType": "address",
          "name": "",
          "type": "address"
        }
      ],
      "name": "voters",
      "outputs": [
        {
          "internalType": "bool",
          "name": "",
          "type": "bool"
        }
      ],
      "stateMutability": "view",
      "type": "function"
    },
    {
      "inputs": [
        {
          "internalType": "address",
          "name": "_voter",
          "type": "address"
        }
      ],
      "name": "addVoter",
      "outputs": [],
      "stateMutability": "nonpayable",
      "type": "function"
    },
    {
      "inputs": [
        {
          "internalType": "string",
          "name": "_name",
          "type": "string"
        },
        {
          "internalType": "string",
          "name": "_party",
          "type": "string"
        }
      ],
      "name": "addCandidate",
      "outputs": [],
      "stateMutability": "nonpayable",
      "type": "function"
    },
    {
      "inputs": [
        {
          "internalType": "uint256",
          "name": "_candidateId",
          "type": "uint256"
        },
        {
          "internalType": "string",
          "name": "_newName",
          "type": "string"
        },
        {
          "internalType": "string",
          "name": "_newParty",
          "type": "string"
        }
      ],
      "name": "editCandidate",
      "outputs": [],
      "stateMutability": "nonpayable",
      "type": "function"
    },
    {
      "inputs": [
        {
          "internalType": "uint256",
          "name": "_candidateId",
          "type": "uint256"
        }
      ],
      "name": "deleteCandidate",
      "outputs": [],
      "stateMutability": "nonpayable",
      "type": "function"
    },
    {
      "inputs": [],
      "name": "startElection",
      "outputs": [],
      "stateMutability": "nonpayable",
      "type": "function"
    },
    {
      "inputs": [],
      "name": "endElection",
      "outputs": [],
      "stateMutability": "nonpayable",
      "type": "function"
    },
    {
      "inputs": [
        {
          "internalType": "address",
          "name": "_voter",
          "type": "address"
        }
      ],
      "name": "hasVoted",
      "outputs": [
        {
          "internalType": "bool",
          "name": "",
          "type": "bool"
        }
      ],
      "stateMutability": "view",
      "type": "function"
    },
    {
      "inputs": [
        {
          "internalType": "uint256",
          "name": "_candidateId",
          "type": "uint256"
        }
      ],
      "name": "vote",
      "outputs": [],
      "stateMutability": "nonpayable",
      "type": "function"
    },
    {
      "inputs": [],
      "name": "viewResults",
      "outputs": [
        {
          "components": [
            {
              "internalType": "uint256",
              "name": "id",
              "type": "uint256"
            },
            {
              "internalType": "string",
              "name": "name",
              "type": "string"
            },
            {
              "internalType": "string",
              "name": "party",
              "type": "string"
            },
            {
              "internalType": "uint256",
              "name": "voteCount",
              "type": "uint256"
            }
          ],
          "internalType": "struct VotingSystem.Candidate[]",
          "name": "",
          "type": "tuple[]"
        }
      ],
      "stateMutability": "view",
      "type": "function"
    }
  ],
  "bytecode": "0x608060405234801561001057600080fd5b5033600360006101000a81548173ffffffffffffffffffffffffffffffffffffffff021916908373ffffffffffffffffffffffffffffffffffffffff1602179055506000600560006101000a81548160ff0219169083151502179055506000600560016101000a81548160ff021916908315150217905550612781806100976000396000f3fe608060405234801561001057600080fd5b50600436106101005760003560e01c806362d73eb811610097578063d5346da111610066578063d5346da114610288578063d55ab095146102a6578063f4ab9adf146102c4578063f851a440146102e057610100565b806362d73eb814610200578063a3ec138d1461020a578063a9ff6df11461023a578063c94ca9e31461026a57610100565b806326541b56116100d357806326541b56146101895780632d35a8a2146101a55780633477ee2e146101c357806359f78468146101f657610100565b80630121b93f1461010557806309eef43e146101215780630c3573e8146101515780631e620cd41461016d575b600080fd5b61011f600480360381019061011a9190611594565b6102fe565b005b61013b6004803603810190610136919061161f565b610582565b6040516101489190611667565b60405180910390f35b61016b600480360381019061016691906117c8565b6105d7565b005b61018760048036038101906101829190611594565b610799565b005b6101a3600480360381019061019e9190611853565b610a75565b005b6101ad610c3d565b6040516101ba91906118da565b60405180910390f35b6101dd60048036038101906101d89190611594565b610c43565b6040516101ed9493929190611974565b60405180910390f35b6101fe610d83565b005b610208610e7f565b005b610224600480360381019061021f919061161f565b610fcc565b6040516102319190611667565b60405180910390f35b610254600480360381019061024f919061161f565b610fec565b6040516102619190611667565b60405180910390f35b61027261100c565b60405161027f9190611667565b60405180910390f35b61029061101f565b60405161029d9190611667565b60405180910390f35b6102ae611032565b6040516102bb9190611b4c565b60405180910390f35b6102de60048036038101906102d9919061161f565b611288565b005b6102e861149f565b6040516102f59190611b7d565b60405180910390f35b600160003373ffffffffffffffffffffffffffffffffffffffff1673ffffffffffffffffffffffffffffffffffffffff16815260200190815260200160002060009054906101000a900460ff1661038a576040517f08c379a000000000000000000000000000000000000000000000000000000000815260040161038190611be4565b60405180910390fd5b6000803373ffffffffffffffffffffffffffffffffffffffff1673ffffffffffffffffffffffffffffffffffffffff16815260200190815260200160002060009054906101000a900460ff1615610416576040517f08c379a000000000000000000000000000000000000000000000000000000000815260040161040d90611c50565b60405180910390fd5b60008111801561042857506004548111155b610467576040517f08c379a000000000000000000000000000000000000000000000000000000000815260040161045e90611cbc565b60405180910390fd5b600560009054906101000a900460ff1680156104905750600560019054906101000a900460ff16155b6104cf576040517f08c379a00000000000000000000000000000000000000000000000000000000081526004016104c690611d28565b60405180910390fd5b60016000803373ffffffffffffffffffffffffffffffffffffffff1673ffffffffffffffffffffffffffffffffffffffff16815260200190815260200160002060006101000a81548160ff02191690831515021790555060026000828152602001908152602001600020600301600081548092919061054d90611d77565b9190505550807ffff3c900d938d21d0990d786e819f29b8d05c1ef587b462b939609625b684b1660405160405180910390a250565b60008060008373ffffffffffffffffffffffffffffffffffffffff1673ffffffffffffffffffffffffffffffffffffffff16815260200190815260200160002060009054906101000a900460ff169050919050565b600360009054906101000a900473ffffffffffffffffffffffffffffffffffffffff1673ffffffffffffffffffffffffffffffffffffffff163373ffffffffffffffffffffffffffffffffffffffff1614610667576040517f08c379a000000000000000000000000000000000000000000000000000000000815260040161065e90611e0b565b60405180910390fd5b600560009054906101000a900460ff16156106b7576040517f08c379a00000000000000000000000000000000000000000000000000000000081526004016106ae90611e77565b60405180910390fd5b600560019054906101000a900460ff1615610707576040517f08c379a00000000000000000000000000000000000000000000000000000000081526004016106fe90611ee3565b60405180910390fd5b60008311801561071957506004548311155b610758576040517f08c379a000000000000000000000000000000000000000000000000000000000815260040161074f90611cbc565b60405180910390fd5b600060026000858152602001908152602001600020905082816001019081610780919061210f565b5081816002019081610792919061210f565b5050505050565b600360009054906101000a900473ffffffffffffffffffffffffffffffffffffffff1673ffffffffffffffffffffffffffffffffffffffff163373ffffffffffffffffffffffffffffffffffffffff1614610829576040517f08c379a000000000000000000000000000000000000000000000000000000000815260040161082090612253565b60405180910390fd5b600560009054906101000a900460ff1615610879576040517f08c379a000000000000000000000000000000000000000000000000000000000815260040161087090611e77565b60405180910390fd5b600560019054906101000a900460ff16156108c9576040517f08c379a00000000000000000000000000000000000000000000000000000000081526004016108c090611ee3565b60405180910390fd5b6000811180156108db57506004548111155b61091a576040517f08c379a000000000000000000000000000000000000000000000000000000000815260040161091190611cbc565b60405180910390fd5b6002600082815260200190815260200160002060008082016000905560018201600061094691906114c5565b60028201600061095691906114c5565b6003820160009055505060008190505b600454811015610a1157600260006001836109819190612273565b81526020019081526020016000206002600083815260200190815260200160002060008201548160000155600182018160010190816109c091906122bd565b50600282018160020190816109d591906122bd565b50600382015481600301559050508060026000838152602001908152602001600020600001819055508080610a0990611d77565b915050610966565b50600260006004548152602001908152602001600020600080820160009055600182016000610a4091906114c5565b600282016000610a5091906114c5565b6003820160009055505060046000815480929190610a6d906123a5565b919050555050565b600360009054906101000a900473ffffffffffffffffffffffffffffffffffffffff1673ffffffffffffffffffffffffffffffffffffffff163373ffffffffffffffffffffffffffffffffffffffff1614610b05576040517f08c379a0000000000000000000000000000000000000000000000000000000008152600401610afc9061241a565b60405180910390fd5b600560009054906101000a900460ff1615610b55576040517f08c379a0000000000000000000000000000000000000000000000000000000008152600401610b4c90611e77565b60405180910390fd5b600560019054906101000a900460ff1615610ba5576040517f08c379a0000000000000000000000000000000000000000000000000000000008152600401610b9c90611ee3565b60405180910390fd5b60046000815480929190610bb890611d77565b9190505550604051806080016040528060045481526020018381526020018281526020016000815250600260006004548152602001908152602001600020600082015181600001556020820151816001019081610c15919061210f565b506040820151816002019081610c2b919061210f565b50606082015181600301559050505050565b60045481565b6002602052806000526040600020600091509050806000015490806001018054610c6c90611f32565b80601f0160208091040260200160405190810160405280929190818152602001828054610c9890611f32565b8015610ce55780601f10610cba57610100808354040283529160200191610ce5565b820191906000526020600020905b815481529060010190602001808311610cc857829003601f168201915b505050505090806002018054610cfa90611f32565b80601f0160208091040260200160405190810160405280929190818152602001828054610d2690611f32565b8015610d735780601f10610d4857610100808354040283529160200191610d73565b820191906000526020600020905b815481529060010190602001808311610d5657829003601f168201915b5050505050908060030154905084565b600360009054906101000a900473ffffffffffffffffffffffffffffffffffffffff1673ffffffffffffffffffffffffffffffffffffffff163373ffffffffffffffffffffffffffffffffffffffff1614610e13576040517f08c379a0000000000000000000000000000000000000000000000000000000008152600401610e0a90612486565b60405180910390fd5b600560009054906101000a900460ff16610e62576040517f08c379a0000000000000000000000000000000000000000000000000000000008152600401610e59906124f2565b60405180910390fd5b6001600560016101000a81548160ff021916908315150217905550565b600360009054906101000a900473ffffffffffffffffffffffffffffffffffffffff1673ffffffffffffffffffffffffffffffffffffffff163373ffffffffffffffffffffffffffffffffffffffff1614610f0f576040517f08c379a0000000000000000000000000000000000000000000000000000000008152600401610f0690612584565b60405180910390fd5b600560009054906101000a900460ff1615610f5f576040517f08c379a0000000000000000000000000000000000000000000000000000000008152600401610f5690611e77565b60405180910390fd5b600560019054906101000a900460ff1615610faf576040517f08c379a0000000000000000000000000000000000000000000000000000000008152600401610fa690611ee3565b60405180910390fd5b6001600560006101000a81548160ff021916908315150217905550565b60006020528060005260406000206000915054906101000a900460ff1681565b60016020528060005260406000206000915054906101000a900460ff1681565b600560019054906101000a900460ff1681565b600560009054906101000a900460ff1681565b6060600560019054906101000a900460ff16611083576040517f08c379a000000000000000000000000000000000000000000000000000000000815260040161107a906125f0565b60405180910390fd5b600060045467ffffffffffffffff8111156110a1576110a061169d565b5b6040519080825280602002602001820160405280156110da57816020015b6110c7611505565b8152602001906001900390816110bf5790505b5090506000600190505b600454811161128057600260008281526020019081526020016000206040518060800160405290816000820154815260200160018201805461112590611f32565b80601f016020809104026020016040519081016040528092919081815260200182805461115190611f32565b801561119e5780601f106111735761010080835404028352916020019161119e565b820191906000526020600020905b81548152906001019060200180831161118157829003601f168201915b505050505081526020016002820180546111b790611f32565b80601f01602080910402602001604051908101604052809291908181526020018280546111e390611f32565b80156112305780601f1061120557610100808354040283529160200191611230565b820191906000526020600020905b81548152906001019060200180831161121357829003601f168201915b50505050508152602001600382015481525050826001836112519190612610565b8151811061126257611261612644565b5b6020026020010181905250808061127890611d77565b9150506110e4565b508091505090565b600360009054906101000a900473ffffffffffffffffffffffffffffffffffffffff1673ffffffffffffffffffffffffffffffffffffffff163373ffffffffffffffffffffffffffffffffffffffff1614611318576040517f08c379a000000000000000000000000000000000000000000000000000000000815260040161130f906126bf565b60405180910390fd5b600160008273ffffffffffffffffffffffffffffffffffffffff1673ffffffffffffffffffffffffffffffffffffffff16815260200190815260200160002060009054906101000a900460ff16156113a5576040517f08c379a000000000000000000000000000000000000000000000000000000000815260040161139c9061272b565b60405180910390fd5b600560009054906101000a900460ff16156113f5576040517f08c379a00000000000000000000000000000000000000000000000000000000081526004016113ec90611e77565b60405180910390fd5b600560019054906101000a900460ff1615611445576040517f08c379a000000000000000000000000000000000000000000000000000000000815260040161143c90611ee3565b60405180910390fd5b60018060008373ffffffffffffffffffffffffffffffffffffffff1673ffffffffffffffffffffffffffffffffffffffff16815260200190815260200160002060006101000a81548160ff02191690831515021790555050565b600360009054906101000a900473ffffffffffffffffffffffffffffffffffffffff1681565b5080546114d190611f32565b6000825580601f106114e35750611502565b601f016020900490600052602060002090810190611501919061152d565b5b50565b6040518060800160405280600081526020016060815260200160608152602001600081525090565b5b8082111561154657600081600090555060010161152e565b5090565b6000604051905090565b600080fd5b600080fd5b6000819050919050565b6115718161155e565b811461157c57600080fd5b50565b60008135905061158e81611568565b92915050565b6000602082840312156115aa576115a9611554565b5b60006115b88482850161157f565b91505092915050565b600073ffffffffffffffffffffffffffffffffffffffff82169050919050565b60006115ec826115c1565b9050919050565b6115fc816115e1565b811461160757600080fd5b50565b600081359050611619816115f3565b92915050565b60006020828403121561163557611634611554565b5b60006116438482850161160a565b91505092915050565b60008115159050919050565b6116618161164c565b82525050565b600060208201905061167c6000830184611658565b92915050565b600080fd5b600080fd5b6000601f19601f8301169050919050565b7f4e487b7100000000000000000000000000000000000000000000000000000000600052604160045260246000fd5b6116d58261168c565b810181811067ffffffffffffffff821117156116f4576116f361169d565b5b80604052505050565b600061170761154a565b905061171382826116cc565b919050565b600067ffffffffffffffff8211156117335761173261169d565b5b61173c8261168c565b9050602081019050919050565b82818337600083830152505050565b600061176b61176684611718565b6116fd565b90508281526020810184848401111561178757611786611687565b5b611792848285611749565b509392505050565b600082601f8301126117af576117ae611682565b5b81356117bf848260208601611758565b91505092915050565b6000806000606084860312156117e1576117e0611554565b5b60006117ef8682870161157f565b935050602084013567ffffffffffffffff8111156118105761180f611559565b5b61181c8682870161179a565b925050604084013567ffffffffffffffff81111561183d5761183c611559565b5b6118498682870161179a565b9150509250925092565b6000806040838503121561186a57611869611554565b5b600083013567ffffffffffffffff81111561188857611887611559565b5b6118948582860161179a565b925050602083013567ffffffffffffffff8111156118b5576118b4611559565b5b6118c18582860161179a565b9150509250929050565b6118d48161155e565b82525050565b60006020820190506118ef60008301846118cb565b92915050565b600081519050919050565b600082825260208201905092915050565b60005b8381101561192f578082015181840152602081019050611914565b60008484015250505050565b6000611946826118f5565b6119508185611900565b9350611960818560208601611911565b6119698161168c565b840191505092915050565b600060808201905061198960008301876118cb565b818103602083015261199b818661193b565b905081810360408301526119af818561193b565b90506119be60608301846118cb565b95945050505050565b600081519050919050565b600082825260208201905092915050565b6000819050602082019050919050565b6119fc8161155e565b82525050565b600082825260208201905092915050565b6000611a1e826118f5565b611a288185611a02565b9350611a38818560208601611911565b611a418161168c565b840191505092915050565b6000608083016000830151611a6460008601826119f3565b5060208301518482036020860152611a7c8282611a13565b91505060408301518482036040860152611a968282611a13565b9150506060830151611aab60608601826119f3565b508091505092915050565b6000611ac28383611a4c565b905092915050565b6000602082019050919050565b6000611ae2826119c7565b611aec81856119d2565b935083602082028501611afe856119e3565b8060005b85811015611b3a5784840389528151611b1b8582611ab6565b9450611b2683611aca565b925060208a01995050600181019050611b02565b50829750879550505050505092915050565b60006020820190508181036000830152611b668184611ad7565b905092915050565b611b77816115e1565b82525050565b6000602082019050611b926000830184611b6e565b92915050565b7f596f7520617265206e6f742061207265676973746572656420766f7465720000600082015250565b6000611bce601e83611900565b9150611bd982611b98565b602082019050919050565b60006020820190508181036000830152611bfd81611bc1565b9050919050565b7f596f75206861766520616c726561647920766f74656400000000000000000000600082015250565b6000611c3a601683611900565b9150611c4582611c04565b602082019050919050565b60006020820190508181036000830152611c6981611c2d565b9050919050565b7f496e76616c69642063616e646964617465000000000000000000000000000000600082015250565b6000611ca6601183611900565b9150611cb182611c70565b602082019050919050565b60006020820190508181036000830152611cd581611c99565b9050919050565b7f456c656374696f6e206e6f7420696e2070726f67726573730000000000000000600082015250565b6000611d12601883611900565b9150611d1d82611cdc565b602082019050919050565b60006020820190508181036000830152611d4181611d05565b9050919050565b7f4e487b7100000000000000000000000000000000000000000000000000000000600052601160045260246000fd5b6000611d828261155e565b91507fffffffffffffffffffffffffffffffffffffffffffffffffffffffffffffffff8203611db457611db3611d48565b5b600182019050919050565b7f4f6e6c792061646d696e2063616e206564697420612063616e64696461746500600082015250565b6000611df5601f83611900565b9150611e0082611dbf565b602082019050919050565b60006020820190508181036000830152611e2481611de8565b9050919050565b7f456c656374696f6e2068617320616c7265616479207374617274656400000000600082015250565b6000611e61601c83611900565b9150611e6c82611e2b565b602082019050919050565b60006020820190508181036000830152611e9081611e54565b9050919050565b7f456c656374696f6e20686173206265656e20636c6f7365640000000000000000600082015250565b6000611ecd601883611900565b9150611ed882611e97565b602082019050919050565b60006020820190508181036000830152611efc81611ec0565b9050919050565b7f4e487b7100000000000000000000000000000000000000000000000000000000600052602260045260246000fd5b60006002820490506001821680611f4a57607f821691505b602082108103611f5d57611f5c611f03565b5b50919050565b60008190508160005260206000209050919050565b60006020601f8301049050919050565b600082821b905092915050565b600060088302611fc57fffffffffffffffffffffffffffffffffffffffffffffffffffffffffffffffff82611f88565b611fcf8683611f88565b95508019841693508086168417925050509392505050565b6000819050919050565b600061200c6120076120028461155e565b611fe7565b61155e565b9050919050565b6000819050919050565b61202683611ff1565b61203a61203282612013565b848454611f95565b825550505050565b600090565b61204f612042565b61205a81848461201d565b505050565b5b8181101561207e57612073600082612047565b600181019050612060565b5050565b601f8211156120c35761209481611f63565b61209d84611f78565b810160208510156120ac578190505b6120c06120b885611f78565b83018261205f565b50505b505050565b600082821c905092915050565b60006120e6600019846008026120c8565b1980831691505092915050565b60006120ff83836120d5565b9150826002028217905092915050565b612118826118f5565b67ffffffffffffffff8111156121315761213061169d565b5b61213b8254611f32565b612146828285612082565b600060209050601f8311600181146121795760008415612167578287015190505b61217185826120f3565b8655506121d9565b601f19841661218786611f63565b60005b828110156121af5784890151825560018201915060208501945060208101905061218a565b868310156121cc57848901516121c8601f8916826120d5565b8355505b6001600288020188555050505b505050505050565b7f4f6e6c792061646d696e2063616e2064656c65746520612063616e646964617460008201527f6500000000000000000000000000000000000000000000000000000000000000602082015250565b600061223d602183611900565b9150612248826121e1565b604082019050919050565b6000602082019050818103600083015261226c81612230565b9050919050565b600061227e8261155e565b91506122898361155e565b92508282019050808211156122a1576122a0611d48565b5b92915050565b6000815490506122b681611f32565b9050919050565b8181036122cb5750506123a3565b6122d4826122a7565b67ffffffffffffffff8111156122ed576122ec61169d565b5b6122f78254611f32565b612302828285612082565b6000601f831160018114612331576000841561231f578287015490505b61232985826120f3565b86555061239c565b601f19841661233f87611f63565b965061234a86611f63565b60005b828110156123725784890154825560018201915060018501945060208101905061234d565b8683101561238f578489015461238b601f8916826120d5565b8355505b6001600288020188555050505b5050505050505b565b60006123b08261155e565b9150600082036123c3576123c2611d48565b5b600182039050919050565b7f4f6e6c792061646d696e2063616e2061646420612063616e6469646174650000600082015250565b6000612404601e83611900565b915061240f826123ce565b602082019050919050565b60006020820190508181036000830152612433816123f7565b9050919050565b7f4f6e6c792061646d696e2063616e20656e642074686520656c656374696f6e00600082015250565b6000612470601f83611900565b915061247b8261243a565b602082019050919050565b6000602082019050818103600083015261249f81612463565b9050919050565b7f456c656374696f6e20686173206e6f7420737461727465642079657400000000600082015250565b60006124dc601c83611900565b91506124e7826124a6565b602082019050919050565b6000602082019050818103600083015261250b816124cf565b9050919050565b7f4f6e6c792061646d696e2063616e2073746172742074686520656c656374696f60008201527f6e00000000000000000000000000000000000000000000000000000000000000602082015250565b600061256e602183611900565b915061257982612512565b604082019050919050565b6000602082019050818103600083015261259d81612561565b9050919050565b7f456c656374696f6e206973206e6f7420796574206f7665720000000000000000600082015250565b60006125da601883611900565b91506125e5826125a4565b602082019050919050565b60006020820190508181036000830152612609816125cd565b9050919050565b600061261b8261155e565b91506126268361155e565b925082820390508181111561263e5761263d611d48565b5b92915050565b7f4e487b7100000000000000000000000000000000000000000000000000000000600052603260045260246000fd5b7f4f6e6c792061646d696e2063616e20616464206120766f746572000000000000600082015250565b60006126a9601a83611900565b91506126b482612673565b602082019050919050565b600060208201905081810360008301526126d88161269c565b9050919050565b7f54686520766f74657220697320616c7265616479207265676973746572656400600082015250565b6000612715601f83611900565b9150612720826126df565b602082019050919050565b6000602082019050818103600083015261274481612708565b905091905056fea2646970667358221220101b4a0f9a20bae2cc9f933de19d435a1270586a6a3e9fd25e4e0a8af0d61fb264736f6c63430008130033",
  "immutableReferences": {},
  "source": "// SPDX-License-Identifier: MIT\r\npragma solidity >=0.7.0 <0.9.0;\r\n\r\ncontract VotingSystem {\r\n    struct Candidate {\r\n        uint id;\r\n        string name;\r\n        string party;\r\n        uint voteCount;\r\n    }\r\n\r\n    mapping(address => bool) public voters;\r\n    mapping(address => bool) public registeredVoters;\r\n    mapping(uint => Candidate) public candidates;\r\n\r\n    address public admin;\r\n    uint public candidatesCount;\r\n    bool public electionStarted;\r\n    bool public electionEnded;\r\n\r\n    event votedEvent(uint indexed _candidateId);\r\n\r\n    constructor() {\r\n        admin = msg.sender;\r\n        electionStarted = false;\r\n        electionEnded = false;\r\n    }\r\n\r\n    function addVoter(address _voter) public {\r\n        require(msg.sender == admin, \"Only admin can add a voter\");\r\n        require(!registeredVoters[_voter], \"The voter is already registered\");\r\n        require(!electionStarted, \"Election has already started\");\r\n        require(!electionEnded, \"Election has been closed\");\r\n\r\n        registeredVoters[_voter] = true;\r\n    }\r\n\r\n    function addCandidate(string memory _name, string memory _party) public {\r\n        require(msg.sender == admin, \"Only admin can add a candidate\");\r\n        require(!electionStarted, \"Election has already started\");\r\n        require(!electionEnded, \"Election has been closed\");\r\n\r\n        candidatesCount++;\r\n        candidates[candidatesCount] = Candidate(\r\n            candidatesCount,\r\n            _name,\r\n            _party,\r\n            0\r\n        );\r\n    }\r\n\r\n    function editCandidate(\r\n        uint _candidateId,\r\n        string memory _newName,\r\n        string memory _newParty\r\n    ) public {\r\n        require(msg.sender == admin, \"Only admin can edit a candidate\");\r\n        require(!electionStarted, \"Election has already started\");\r\n        require(!electionEnded, \"Election has been closed\");\r\n\r\n        require(\r\n            _candidateId > 0 && _candidateId <= candidatesCount,\r\n            \"Invalid candidate\"\r\n        );\r\n\r\n        Candidate storage candidate = candidates[_candidateId];\r\n        candidate.name = _newName;\r\n        candidate.party = _newParty;\r\n    }\r\n\r\n    function deleteCandidate(uint _candidateId) public {\r\n        require(msg.sender == admin, \"Only admin can delete a candidate\");\r\n        require(!electionStarted, \"Election has already started\");\r\n        require(!electionEnded, \"Election has been closed\");\r\n\r\n        require(\r\n            _candidateId > 0 && _candidateId <= candidatesCount,\r\n            \"Invalid candidate\"\r\n        );\r\n\r\n        delete candidates[_candidateId];\r\n\r\n        // Reassign the candidate IDs\r\n        for (uint i = _candidateId; i < candidatesCount; i++) {\r\n            candidates[i] = candidates[i + 1];\r\n            candidates[i].id = i;\r\n        }\r\n\r\n        delete candidates[candidatesCount];\r\n        candidatesCount--;\r\n    }\r\n\r\n    function startElection() public {\r\n        require(msg.sender == admin, \"Only admin can start the election\");\r\n        require(!electionStarted, \"Election has already started\");\r\n        require(!electionEnded, \"Election has been closed\");\r\n        electionStarted = true;\r\n    }\r\n\r\n    function endElection() public {\r\n        require(msg.sender == admin, \"Only admin can end the election\");\r\n        require(electionStarted, \"Election has not started yet\");\r\n        electionEnded = true;\r\n    }\r\n\r\n    function hasVoted(address _voter) public view returns (bool) {\r\n        return voters[_voter];\r\n    }\r\n\r\n    function vote(uint _candidateId) public {\r\n        require(registeredVoters[msg.sender], \"You are not a registered voter\");\r\n        require(!voters[msg.sender], \"You have already voted\");\r\n        require(\r\n            _candidateId > 0 && _candidateId <= candidatesCount,\r\n            \"Invalid candidate\"\r\n        );\r\n        require(electionStarted && !electionEnded, \"Election not in progress\");\r\n\r\n        voters[msg.sender] = true;\r\n        candidates[_candidateId].voteCount++;\r\n\r\n        emit votedEvent(_candidateId);\r\n    }\r\n\r\n    function viewResults() public view returns (Candidate[] memory) {\r\n        require(electionEnded, \"Election is not yet over\");\r\n        Candidate[] memory results = new Candidate[](candidatesCount);\r\n        for (uint i = 1; i <= candidatesCount; i++) {\r\n            results[i - 1] = candidates[i];\r\n        }\r\n        return results;\r\n    }\r\n}\r\n",
  "sourcePath": "C:\\Users\\smartiri\\Workspace\\GraduationProject\\truffle-structure\\contracts\\VotingSystems.sol",
  "compiler": {
    "name": "solc",
    "version": "0.8.19+commit.7dd6d404.Emscripten.clang"
  },
  "schemaVersion": "3.4.14",
  "updatedAt": "2023-06-11T20:52:55.623Z",
  "devdoc": {
    "kind": "dev",
    "methods": {},
    "version": 1
  },
  "userdoc": {
    "kind": "user",
    "methods": {},
    "version": 1
  }
}